{
  "contractName": "Anon",
  "abi": [
    {
      "constant": false,
      "inputs": [
        {
          "name": "_latitude",
          "type": "bytes32"
        },
        {
          "name": "_longitude",
          "type": "bytes32"
        },
        {
          "name": "_name",
          "type": "bytes32"
        }
      ],
      "name": "createEvent",
      "outputs": [],
      "payable": false,
      "stateMutability": "nonpayable",
      "type": "function",
      "signature": "0x152efa0e"
    },
    {
      "constant": false,
      "inputs": [
        {
          "name": "_latitude",
          "type": "bytes32"
        },
        {
          "name": "_longitude",
          "type": "bytes32"
        },
        {
          "name": "_eventId",
          "type": "uint256"
        },
        {
          "name": "_filePath",
          "type": "string"
        }
      ],
      "name": "createPost",
      "outputs": [],
      "payable": false,
      "stateMutability": "nonpayable",
      "type": "function",
      "signature": "0x4f3f7e32"
    }
  ],
  "bytecode": "0x608060405260016000556001805534801561001957600080fd5b50610589806100296000396000f3fe60806040526004361061004c576000357c0100000000000000000000000000000000000000000000000000000000900463ffffffff168063152efa0e146100515780634f3f7e32146100a0575b600080fd5b34801561005d57600080fd5b5061009e6004803603606081101561007457600080fd5b81019080803590602001909291908035906020019092919080359060200190929190505050610186565b005b3480156100ac57600080fd5b50610184600480360360808110156100c357600080fd5b81019080803590602001909291908035906020019092919080359060200190929190803590602001906401000000008111156100fe57600080fd5b82018360208201111561011057600080fd5b8035906020019184600183028401116401000000008311171561013257600080fd5b91908080601f016020809104026020016040519081016040528093929190818152602001838380828437600081840152601f19601f8201169050808301925050505050505091929192905050506102d1565b005b61018e6103e3565b60408051908101604052808581526020018481525090506101ad610403565b6080604051908101604052808481526020013373ffffffffffffffffffffffffffffffffffffffff16815260200183815260200160006040519080825280602002602001820160405280156102115781602001602082028038833980820191505090505b50815250905080600260008060008154809291906001019190505581526020019081526020016000206000820151816000015560208201518160010160006101000a81548173ffffffffffffffffffffffffffffffffffffffff021916908373ffffffffffffffffffffffffffffffffffffffff1602179055506040820151816002016000820151816000015560208201518160010155505060608201518160040190805190602001906102c692919061044b565b509050505050505050565b6102d96103e3565b604080519081016040528086815260200185815250905060a0604051908101604052806001548152602001848152602001838152602001828152602001428152506003600060015481526020019081526020016000206000820151816000015560208201518160010155604082015181600201908051906020019061035f929190610498565b50606082015181600301600082015181600001556020820151816001015550506080820151816005015590505060026000848152602001908152602001600020600401600160008154809291906001019190505590806001815401808255809150509060018203906000526020600020016000909192909190915055505050505050565b604080519081016040528060008019168152602001600080191681525090565b60a06040519081016040528060008019168152602001600073ffffffffffffffffffffffffffffffffffffffff16815260200161043e610518565b8152602001606081525090565b828054828255906000526020600020908101928215610487579160200282015b8281111561048657825182559160200191906001019061046b565b5b5090506104949190610538565b5090565b828054600181600116156101000203166002900490600052602060002090601f016020900481019282601f106104d957805160ff1916838001178555610507565b82800160010185558215610507579182015b828111156105065782518255916020019190600101906104eb565b5b5090506105149190610538565b5090565b604080519081016040528060008019168152602001600080191681525090565b61055a91905b8082111561055657600081600090555060010161053e565b5090565b9056fea165627a7a72305820c863e51930b0c24218ec9049f6153d8fab911ed9ff2ec45afda4a240a1212b880029",
  "source": "pragma solidity ^0.5.0;\n\ncontract Anon {\n    struct Geolocation {\n        bytes32 latitude;\n        bytes32 longitude;\n    }\n\n    struct Post {\n        uint id;\n        uint eventId;\n        string filePath;\n        Geolocation location;\n        uint timestamp;\n    }\n\n    struct Event {\n        bytes32 name;\n        address creator;\n        Geolocation location;\n        uint[] posts;\n    }\n\n    uint eventId = 1;\n    uint postId = 1;\n\n    mapping(uint => Event) events;\n    mapping(uint => Post) posts;\n\n    function createEvent(bytes32 _latitude, bytes32 _longitude, bytes32 _name) public {\n        Geolocation memory loc = Geolocation({\n            latitude: _latitude,\n            longitude: _longitude\n        });\n\n        Event memory newEvent = Event({\n            name: _name,\n            creator: msg.sender,\n            location: loc,\n            posts: new uint[](0)\n        });\n\n        events[eventId++] = newEvent;\n    }\n\n    function createPost(bytes32 _latitude, bytes32 _longitude, uint _eventId, string memory _filePath) public {\n        Geolocation memory loc = Geolocation({\n            latitude: _latitude,\n            longitude: _longitude\n        });\n\n        posts[postId] = Post({\n            id: postId,\n            eventId: _eventId,\n            filePath: _filePath,\n            location: loc,\n            timestamp: block.timestamp\n        });\n\n        events[_eventId].posts.push(postId++);\n    }\n}",
  "sourcePath": "/Users/michaeljcohen/Desktop/projects/anonHero/contracts/Anon.sol",
  "compiler": {
    "name": "solc",
    "version": "0.5.0+commit.1d4f565a.Emscripten.clang"
  },
  "schemaVersion": "3.0.2",
  "updatedAt": "2019-09-07T23:10:47.593Z",
  "devdoc": {
    "methods": {}
  },
  "userdoc": {
    "methods": {}
  }
}