{
  "contractName": "Anon",
  "abi": [
    {
      "constant": false,
      "inputs": [
        {
          "name": "_latitude",
          "type": "bytes32"
        },
        {
          "name": "_longitude",
          "type": "bytes32"
        },
        {
          "name": "_name",
          "type": "bytes32"
        }
      ],
      "name": "createEvent",
      "outputs": [],
      "payable": false,
      "stateMutability": "nonpayable",
      "type": "function",
      "signature": "0x152efa0e"
    },
    {
      "constant": false,
      "inputs": [
        {
          "name": "_latitude",
          "type": "bytes32"
        },
        {
          "name": "_longitude",
          "type": "bytes32"
        },
        {
          "name": "_eventId",
          "type": "uint256"
        },
        {
          "name": "_filePath",
          "type": "string"
        }
      ],
      "name": "createPost",
      "outputs": [],
      "payable": false,
      "stateMutability": "nonpayable",
      "type": "function",
      "signature": "0x4f3f7e32"
    },
    {
      "constant": false,
      "inputs": [
        {
          "name": "_eventId",
          "type": "uint256"
        }
      ],
      "name": "getEvent",
      "outputs": [
        {
          "name": "name",
          "type": "bytes32"
        },
        {
          "name": "creator",
          "type": "address"
        },
        {
          "name": "latitude",
          "type": "bytes32"
        },
        {
          "name": "longitude",
          "type": "bytes32"
        },
        {
          "name": "eventPosts",
          "type": "uint256[]"
        }
      ],
      "payable": false,
      "stateMutability": "nonpayable",
      "type": "function",
      "signature": "0x6d1884e0"
    },
    {
      "constant": false,
      "inputs": [
        {
          "name": "_postId",
          "type": "uint256"
        }
      ],
      "name": "getPost",
      "outputs": [
        {
          "name": "filePath",
          "type": "string"
        },
        {
          "name": "latitude",
          "type": "bytes32"
        },
        {
          "name": "longitude",
          "type": "bytes32"
        },
        {
          "name": "timestamp",
          "type": "uint256"
        }
      ],
      "payable": false,
      "stateMutability": "nonpayable",
      "type": "function",
      "signature": "0x40731c24"
    }
  ],
  "bytecode": "0x608060405260016000556001805534801561001957600080fd5b50610958806100296000396000f3fe608060405260043610610062576000357c0100000000000000000000000000000000000000000000000000000000900463ffffffff168063152efa0e1461006757806340731c24146100b65780634f3f7e321461017f5780636d1884e014610265575b600080fd5b34801561007357600080fd5b506100b46004803603606081101561008a57600080fd5b8101908080359060200190929190803590602001909291908035906020019092919050505061033d565b005b3480156100c257600080fd5b506100ef600480360360208110156100d957600080fd5b8101908080359060200190929190505050610488565b6040518080602001858152602001848152602001838152602001828103825286818151815260200191508051906020019080838360005b83811015610141578082015181840152602081019050610126565b50505050905090810190601f16801561016e5780820380516001836020036101000a031916815260200191505b509550505050505060405180910390f35b34801561018b57600080fd5b50610263600480360360808110156101a257600080fd5b81019080803590602001909291908035906020019092919080359060200190929190803590602001906401000000008111156101dd57600080fd5b8201836020820111156101ef57600080fd5b8035906020019184600183028401116401000000008311171561021157600080fd5b91908080601f016020809104026020016040519081016040528093929190818152602001838380828437600081840152601f19601f82011690508083019250505050505050919291929050505061059b565b005b34801561027157600080fd5b5061029e6004803603602081101561028857600080fd5b81019080803590602001909291905050506106ad565b604051808681526020018573ffffffffffffffffffffffffffffffffffffffff1673ffffffffffffffffffffffffffffffffffffffff16815260200184815260200183815260200180602001828103825283818151815260200191508051906020019060200280838360005b8381101561032557808201518184015260208101905061030a565b50505050905001965050505050505060405180910390f35b6103456107b2565b60408051908101604052808581526020018481525090506103646107d2565b6080604051908101604052808481526020013373ffffffffffffffffffffffffffffffffffffffff16815260200183815260200160006040519080825280602002602001820160405280156103c85781602001602082028038833980820191505090505b50815250905080600260008060008154809291906001019190505581526020019081526020016000206000820151816000015560208201518160010160006101000a81548173ffffffffffffffffffffffffffffffffffffffff021916908373ffffffffffffffffffffffffffffffffffffffff16021790555060408201518160020160008201518160000155602082015181600101555050606082015181600401908051906020019061047d92919061081a565b509050505050505050565b6060600080600060036000868152602001908152602001600020600201600360008781526020019081526020016000206003016000015460036000888152602001908152602001600020600301600101546003600089815260200190815260200160002060050154838054600181600116156101000203166002900480601f0160208091040260200160405190810160405280929190818152602001828054600181600116156101000203166002900480156105855780601f1061055a57610100808354040283529160200191610585565b820191906000526020600020905b81548152906001019060200180831161056857829003601f168201915b5050505050935093509350935093509193509193565b6105a36107b2565b604080519081016040528086815260200185815250905060a06040519081016040528060015481526020018481526020018381526020018281526020014281525060036000600154815260200190815260200160002060008201518160000155602082015181600101556040820151816002019080519060200190610629929190610867565b50606082015181600301600082015181600001556020820151816001015550506080820151816005015590505060026000848152602001908152602001600020600401600160008154809291906001019190505590806001815401808255809150509060018203906000526020600020016000909192909190915055505050505050565b600080600080606060026000878152602001908152602001600020600001546002600088815260200190815260200160002060010160009054906101000a900473ffffffffffffffffffffffffffffffffffffffff166002600089815260200190815260200160002060020160000154600260008a815260200190815260200160002060020160010154600260008b81526020019081526020016000206004018080548060200260200160405190810160405280929190818152602001828054801561079857602002820191906000526020600020905b815481526020019060010190808311610784575b505050505090509450945094509450945091939590929450565b604080519081016040528060008019168152602001600080191681525090565b60a06040519081016040528060008019168152602001600073ffffffffffffffffffffffffffffffffffffffff16815260200161080d6108e7565b8152602001606081525090565b828054828255906000526020600020908101928215610856579160200282015b8281111561085557825182559160200191906001019061083a565b5b5090506108639190610907565b5090565b828054600181600116156101000203166002900490600052602060002090601f016020900481019282601f106108a857805160ff19168380011785556108d6565b828001600101855582156108d6579182015b828111156108d55782518255916020019190600101906108ba565b5b5090506108e39190610907565b5090565b604080519081016040528060008019168152602001600080191681525090565b61092991905b8082111561092557600081600090555060010161090d565b5090565b9056fea165627a7a7230582051f917e6b8bbc188ee55283e8dadeb3f2809278c8aa0c52a5f4dc296cc0e6b950029",
  "source": "pragma solidity ^0.5.0;\n\ncontract Anon {\n    struct Geolocation {\n        bytes32 latitude;\n        bytes32 longitude;\n    }\n\n    struct Post {\n        uint256 id;\n        uint256 eventId;\n        string filePath;\n        Geolocation location;\n        uint256 timestamp;\n    }\n\n    struct Event {\n        bytes32 name;\n        address creator;\n        Geolocation location;\n        uint256[] posts;\n    }\n\n    uint256 eventId = 1;\n    uint256 postId = 1;\n\n    mapping(uint256 => Event) events;\n    mapping(uint256 => Post) posts;\n\n    function createEvent(bytes32 _latitude, bytes32 _longitude, bytes32 _name)\n        public\n    {\n        Geolocation memory loc = Geolocation({\n            latitude: _latitude,\n            longitude: _longitude\n        });\n\n        Event memory newEvent = Event({\n            name: _name,\n            creator: msg.sender,\n            location: loc,\n            posts: new uint256[](0)\n        });\n\n        events[eventId++] = newEvent;\n    }\n\n    function createPost(\n        bytes32 _latitude,\n        bytes32 _longitude,\n        uint256 _eventId,\n        string memory _filePath\n    ) public {\n        Geolocation memory loc = Geolocation({\n            latitude: _latitude,\n            longitude: _longitude\n        });\n\n        posts[postId] = Post({\n            id: postId,\n            eventId: _eventId,\n            filePath: _filePath,\n            location: loc,\n            timestamp: block.timestamp\n        });\n\n        events[_eventId].posts.push(postId++);\n    }\n\n    function getEvent(uint256 _eventId)\n        public\n        returns (\n            bytes32 name,\n            address creator,\n            bytes32 latitude,\n            bytes32 longitude,\n            uint256[] memory eventPosts\n        )\n    {\n        return (\n            events[_eventId].name,\n            events[_eventId].creator,\n            events[_eventId].location.latitude,\n            events[_eventId].location.longitude,\n            events[_eventId].posts\n        );\n    }\n\n    function getPost(uint256 _postId)\n        public\n        returns (\n            string memory filePath,\n            bytes32 latitude,\n            bytes32 longitude,\n            uint256 timestamp\n        )\n    {\n        return (\n            posts[_postId].filePath,\n            posts[_postId].location.latitude,\n            posts[_postId].location.longitude,\n            posts[_postId].timestamp\n        );\n    }\n}\n",
  "sourcePath": "/Users/michaeljcohen/Desktop/projects/anonHero/contracts/Anon.sol",
  "compiler": {
    "name": "solc",
    "version": "0.5.0+commit.1d4f565a.Emscripten.clang"
  },
  "schemaVersion": "3.0.2",
  "updatedAt": "2019-09-07T23:52:10.056Z",
  "devdoc": {
    "methods": {}
  },
  "userdoc": {
    "methods": {}
  }
}